:100000000C9461020C9499020C9499020C9499023C
:100010000C9499020C9499020C9499020C949902F4
:100020000C9499020C9499020C94E7210C94BB2235
:100030000C94B51C0C9499020C9499020C9499029E
:100040000C9499020C9499020C9499020C949902C4
:100050000C9499020C94571D0C9499020C949902DB
:100060000C9499020C9499020C9499020C949902A4
:100070000C9499020C9499020C9499020C94990294
:100080000C9499020C9499020C9499020C94990284
:100090000C9499020C9499020C9499020C94990274
:1000A0000C9499020C9499020C94990214001A0071
:1000B0000800150017001C0018000C0012001300A7
:1000C00004001600070009000A000B000D000E00D6
:1000D0000F0028001D001B0006001900050011007C
:1000E0001000360037002A00E000E300E200015172
:1000F000E1002C00025829432B444C003502220217
:100100002D0223022E022502210233023102350084
:100110001F0234021E0238022D00380020022F0276
:10012000300233002F003000260227022E0031005B
:100130002402360237023400350722072D071050FB
:100140002A012C081D012E082D0829084B004A0001
:1001500052004D002E022502240025002600370003
:100160004E00500051004F002D00380021002200A9
:100170002300580039002F07300738072E002700CA
:100180001E001F0020002A00010001000100105085
:10019000E1002C00105029002B004C0042004300CD
:1001A00044004500F100ED00F2002B0152001A015D
:1001B0003E003F0040004100EF00EE00F000500024
:1001C00051004F003A003B003C003D00F400F900B4
:1001D000F5004A004B004D000100010001001050E5
:1001E0000100FA00F30010504E00280414071A070B
:1001F0000807150717071C0718070C07120713072E
:1002000004071607070709070A070B070D070E075C
:100210000F0752081D071B070607190705071107D7
:1002200010072B043D044F083107AA00A900A800BD
:10023000AC00AB00AE00135010505108000101019A
:100240000101010101010202020202020202020393
:100250000303030303030304040404040404050563
:100260000505050606060606070707070708080826
:1002700008090909090A0A0A0B0B0B0C0C0C0D0DD5
:100280000D0E0E0E0F0F0F1010111111121213136D
:100290001414151516161717181819191A1A1B1BE6
:1002A0001C1D1D1E1E1F2020212222232424252642
:1002B00026272829292A2B2C2D2D2E2F303132327A
:1002C000333435363738393A3B3C3D3E3F40414286
:1002D000434445464748494A4C4D4E4F505153546C
:1002E000555658595A5B5D5E5F6162646566686920
:1002F0006B6C6D6F7072737577787A7B7D7E8082A0
:10030000838587888A8C8E8F91939596989A9C9EE8
:10031000A0A2A3A5A7A9ABADAFB1B3B5B7BABCBEF8
:10032000C0C2C4C6C9CBCDCFD1D4D6D8DBDDDFE2C5
:10033000E4E7E9EBEEF0F3F5F8FAFDFF24034900FA
:100340007100690072007400720079006900200079
:100350004B006500790062006F006100720064006C
:100360000000160371006D006B00620075006900EB
:100370006C006400650072000000040309040902B7
:100380003B00020100A0FA09040000010301010082
:100390000921110100012240000705810308000125
:1003A00009040100010300000009211101000122DC
:1003B000B6000705820320000112010002000000C0
:1003C00008EDFE606001000102000105010902A1C3
:1003D0000185020901A10005091901290815002557
:1003E0000195087501810205010930093115812542
:1003F0007F95027508810609381581257F9501755D
:10040000088106050C0A38021581257F95017508BB
:100410008106C0C005010980A101850319012AB721
:1004200000150126B700950175108100C0050C0963
:1004300001A101850419012AA002150126A0029537
:100440000175108100C005010906A1018506050797
:1004500019E029E7150025019508750181020507B6
:10046000190029EF1500250195F075018102050895
:1004700019012905950575019102950175039101F1
:10048000C005010906A101050719E029E7150025A6
:10049000019508750181029501750881010507190B
:1004A0000029FF150026FF00950675088100050844
:1004B00019012905950575019102950175039101B1
:1004C000C00011241FBECFEFDAE0DEBFCDBF04B6FF
:1004D00003FE18C08091240390912503A091260368
:1004E000B09127038730904BA740B04B59F410923E
:1004F0002403109225031092260310922703E0E0B4
:10050000F8E3099511E0A0E0B1E0E4E2FAE402C00A
:1005100005900D92A03EB107D9F723E0A0EEB1E01F
:1005200001C01D92A432B207E1F70E9404130C949B
:10053000FA240C94000081FF03C0849A8C980895DB
:100540008498FCCF80E00E948808882309F140E06D
:1005500060E080E00E94911620E040E86FEF83E0C9
:1005600090E00E944D1620E04FEF60E086E090E0C2
:100570000E944D162FEF40E060E087E090E00E947F
:100580004D1620E040E06FEF88E090E00E944D16AD
:1005900081E00E948808882361F040E060E88FEFE6
:1005A0000E9491162FEF4FEF6FEF83E090E00E94D3
:1005B0004D1682E00E948808882361F040E06FEFCA
:1005C00080E00E9491162FEF4FEF6FEF86E090E0F2
:1005D0000E944D1683E00E948808882361F04FEF47
:1005E00060E080E00E9491162FEF4FEF6FEF87E001
:1005F00090E00E944D1684E00E948808882361F0F4
:1006000040E060E08FEF0E9491162FEF4FEF6FEF09
:1006100088E090E00C944D16089581E0089581E003
:1006200008950C940F0308950C9413031F93CF9314
:10063000DF9300D000D00F92CDB7DEB749835A8345
:100640006B833091E30189819A8131111DC066234A
:10065000B9F02223A9F00E949809182F682F8981E8
:100660009A810E94440969817A81812F0F900F90AD
:100670000F900F900F90DF91CF911F910C947010FD
:100680000E947009182FEFCF0E94980969817A8122
:10069000EDCFFC01262F40815181628173818481DD
:1006A0000C94160381E00895CF93DF93EC0160E092
:1006B0000E944903BE01DF91CF910C9414030C9466
:1006C000A4110C94A71108950E94D1070E946303FE
:1006D0002FEF84E39CE0215080409040E1F700C080
:1006E00000000C947B1D0F931F93CF93DF938C011D
:1006F00061E00E944903EC01B8010E9411038823C4
:10070000D9F1B801CE010E94051B8823A9F1B801D7
:10071000CE010E943219882379F1B801CE010E94DE
:100720006F1A882349F1B801CE010E948D188823E1
:1007300019F1F8018281882361F0CB35FDE5DF07EF
:1007400021F170F4C115ECE5DE07A1F0CF3DDC45E9
:10075000C9F0C801DF91CF911F910F910C940D0347
:10076000CC358DE5D807A1F0CD35DD4591F70E9458
:10077000CD0DEFCF0E94640380E0DF91CF911F91F8
:100780000F9108950E94870EF7CF0E94D60DE1CFFA
:100790000E94D90DDECF0E94991C0E9400170E9472
:1007A000EA0381E00C947E170E94ED0380E00E9432
:1007B0007E170C949D1C0C949B0281E008950C9470
:1007C000DD030895CF93C82F0E94DB038C2FCF91B8
:1007D0000C94DF0380E00C94E2030E94611B0C94F4
:1007E000E2030E94611B9091E201981721F080932F
:1007F000E2010C94E2030895CF93DF93CDB7DEB707
:100800002B970FB6F894DEBF0FBECDBF4F8358872E
:1008100069877A878B8761110E941B0D1E821D825A
:1008200085E0FE013796DE01119601900D928A95C2
:10083000E1F78C819D81892B89F449815A816B81F3
:100840007C818D819E810E943C0C2B960FB6F89482
:10085000DEBF0FBECDBFDF91CF91089589819A8110
:1008600089238F3F51F3CE0101960E9452038111DB
:10087000E4CFEBCFFC01808191810C94DA09CF9316
:10088000C82F882309F48BC08238C1F40E94611BF1
:1008900081FD85C089E30E94D60C0E943B0D2FEF9D
:1008A00081EE94E0215080409040E1F700C00000CC
:1008B00089E30E94DD0CCF910C943B0D8338A1F4A9
:1008C0000E94611B80FD6BC083E50E94D60C0E94D4
:1008D0003B0D2FEF81EE94E0215080409040E1F7F6
:1008E00000C0000083E5E5CF8438A1F40E94611BBD
:1008F00082FD55C087E40E94D60C0E943B0D2FEF6D
:1009000081EE94E0215080409040E1F700C000006B
:1009100087E4CFCF8CEF8C0F813A90F46C2F8091CD
:100920004801909149010E94D51B882329F08C2F02
:100930000E94DD0C0E943B0D8C2F0E94D60CBBCF79
:1009400080E28C0F883048F4C77081E001C0880FC6
:10095000CA95EAF70E94FE0CAECFEBE5EC0FE33050
:1009600040F4F0E0EA56FE4F808190E0CF910C9485
:10097000951BE8E5EC0FE73150F4F0E0EE0FFF1FB8
:10098000E859FE4F80819181CF910C94AB1BCD3EF5
:1009900030F08C2F0E948813CF910C945B14CF9170
:1009A0000895882309F452C0823871F40E94611BB3
:1009B00081FF4CC089E30E94D60C0E943B0D89E365
:1009C0000E94DD0C0C943B0D833859F40E94611B8E
:1009D00080FF3CC083E50E94D60C0E943B0D83E55E
:1009E000EFCF843859F40E94611B82FF2FC087E447
:1009F0000E94D60C0E943B0D87E4E2CF9CEF980F3B
:100A0000913AF0F290E2980F983050F4877091E0AC
:100A100001C0990F8A95EAF7892F0E94040DD2CF61
:100A20009BE5980F933020F490E080E00C94951BA8
:100A300098E5980F973120F490E080E00C94AB1B80
:100A40008D3E20F00E94E2130C945B1408951F93D6
:100A5000CF93DF93182FEB010E943F04209731F4CE
:100A6000812FDF91CF911F910C94D1048FE99FE0EA
:100A70000197F1F700C000002197F0CF70E060E02F
:100A8000893311F460E570E00C942705882321F088
:100A90000E94FE0C0C943B0D0895882321F00E94C7
:100AA000040D0C943B0D0895BF92CF92DF92EF920C
:100AB000FF920F931F93CF93DF936C01D62FC72F15
:100AC000FC011281F580F2949FE0F9220E94F40C5F
:100AD000E82E8823B9F0E12E1123A1F08C2F807F1E
:100AE000803421F080E28D0F8830D0F08091DA02DE
:100AF00082FD16C082E00E949C0D0E94F40C91E0E1
:100B0000E82EE926BC2EB2948FE0B822FBE0FB155C
:100B100008F468C0EB2DF0E0E450FB4D0C949524F4
:100B2000E12CF0CF0C2F0F70C07F11F00295007FE9
:100B3000112399F0002359F080E28D0F883010F0D6
:100B4000D11107C0802F0E94FE0C0E943B0D8D2FFB
:100B500041C0802F0E940E0DF8CF8D2F0E94D1042E
:100B6000002309F43FC080E28D0F883010F0D111CE
:100B700004C0802F0E94040D03C0802F0E94140D1A
:100B80000E943B0D2FC00C2F0F70C07FC03211F0A0
:100B90000295007FDD2381F0D13009F469C0112373
:100BA00009F473C0FF2009F469C0F601858180FF54
:100BB000CECF8F70858362C08091DA0282FF38C009
:100BC000112359F0002329F0802F0E94FE0C0E946F
:100BD0003B0D80E00E943F0405C080E00E94D104EC
:100BE0000111C7CFEB2DE850FF0B349720F40E9482
:100BF000611B0E94E203EE2009F472C10E94F00C16
:100C000080FD6EC1F60112820E94EA0C0E94A808C3
:100C1000C6010E9491070E94EA0CDF91CF911F91BB
:100C20000F91FF90EF90DF90CF90BF900C94C90888
:100C3000112389F0F11006C00E941E0D802B0E9426
:100C40004605D0CF21E0F212F7CF0E941E0D802B77
:100C50000E94240DC7CFF11006C00E94310D802FD5
:100C60000E944D05BFCF31E0F31609F4BBCFF5CF9D
:100C7000112331F082E08F1508F4B4CF802FDFCF3D
:100C800091E09F1508F4AECFEACFFF2041F3D933AE
:100C900049F4FFEF27EE33E0F15020403040E1F718
:100CA00000C000008D2F0E94D1049CCF8C2F869510
:100CB0008695837069F0813009F094CF8D2F9C2F39
:100CC0009370111102C090E080E00E94AB1B8ACFAC
:100CD0008D2F9C2F9370111102C090E080E00E9434
:100CE000951B80CF8D2F112329F00E9488130E941D
:100CF0005B1478CF0E94E213FACF8C2F837009F037
:100D000041C011116FCF4D2F429546954770440F4A
:100D1000440F0D2F0F7010E030E020E0042E04C0CF
:100D2000000F111F221F331F0A94D2F760E070E0FA
:100D3000CB01D4FF0FC06FE070E080E090E004C012
:100D4000660F771F881F991F4A95D2F76095709597
:100D500080959095C695C695C370602B712B822B9C
:100D6000932BC23049F058F4C13019F00E943A0870
:100D700039CF0E94280836CF0E944C0833CF0E94FA
:100D8000260830CF8695112311F08C2F817088238F
:100D900009F428CF4D2F429546954770440F440FD4
:100DA0000D2F0F7010E030E020E0042E04C0000F83
:100DB000111F221F331F0A94D2F760E070E0CB01AD
:100DC000D4FF0FC06FE070E080E090E004C0660FD9
:100DD000771F881F991F4A95D2F760957095809567
:100DE0009095C695C695C370602B712B822B932B63
:100DF000C23049F058F4C13019F00E941F09F2CEF8
:100E00000E940D09EFCE0E943109ECCE0E946208CB
:100E1000E9CECF70112329F08C2F0E94A8088D2FC6
:100E20000ECF8D2F0E944D058C2F0E94C908DACE5F
:100E3000D23F51F160F4D03FB9F0D13F81F011239E
:100E400009F449C0F11083CE8C2F8F7121C0D33F9C
:100E500011F1D43FA1F78091DA0282FF26C08C2FD6
:100E60008F71112311F314C0112349F081E08F1504
:100E700008F4B8CE8C2F8F710E94EC08B3CE92E0AC
:100E80009F1508F4AFCEF6CF8C2F8F711111CDCFF7
:100E90000E94A808A7CE112329F08C2F8F710E94E1
:100EA0009308A0CE0E946E089DCE112349F0CF7109
:100EB0008C2F0E94A80863E08C2F0E94810D92CE97
:100EC00081E00E949C0DE1E0EF1508F08BCE82E0FE
:100ED0000E949C0D87CEF110DACE8C2F8F71A5CF9A
:100EE000DF91CF911F910F91FF90EF90DF90CF9006
:100EF000BF9008950F931F93CF93DF93EC01688108
:100F000079818A810E94E4098C010E9443090E9430
:100F10002508B801CE01DF91CF911F910F910C945C
:100F20005405CF93DF93EC018B819C81892B29F0B1
:100F30008881998189238F3F59F4DF91CF9108955A
:100F4000CE010E947A07CE01DF91CF910C94540319
:100F5000CE010E9473038111F3CF0E94F40C882309
:100F600061F38A81882349F38091DA0282FDE5CF1B
:100F700082E0DF91CF910C949C0D90E080E00E9484
:100F8000951B90E080E00E94AB1B0E941B0D0E940D
:100F90003B0D0E9482150C945B140E94E40C0C948F
:100FA000BD070E940B0D0C94CD0792959F70963053
:100FB00091F058F4925F9F70923058F4803F19F08E
:100FC00030F4883E30F481E008959A5FF4CF843F96
:100FD000D1F380E00895883EB0F3813FD1F7F3CF9D
:100FE000FC01808191810E94DA090C94D507CF938E
:100FF000DF9300D000D00F92CDB7DEB70F900F90E7
:101000000F900F900F90DF91CF910895CF93DF93C2
:1010100000D000D000D0CDB7DEB726960FB6F8943A
:10102000DEBF0FBECDBFDF91CF91089508950C9420
:1010300016080E94170860930102709302028093C1
:101040000302909304020C94BD0708950C941908B0
:101050000F931F930091010210910202209103024D
:1010600030910402602B712B822B932B1F910F91D7
:101070000C9419080F931F93009101021091020222
:101080002091030230910402602371238223932371
:101090001F910F910C9419080F931F930091010257
:1010A00010910202209103023091040260277127FF
:1010B000822793271F910F910C9419080C941608FE
:1010C0000C945E080E9460086093FD017093FE011D
:1010D0008093FF01909300020C94BD0760E070E0E4
:1010E000CB010C946208611571058105910529F405
:1010F00081E0442361F080E00895DC01CB0104C06D
:10110000B695A795979587954A95D2F781700895DA
:10111000482F6091FD017091FE018091FF01909137
:1011200000020C9473080F931F9341E050E060E0BD
:1011300070E08A019B0104C0000F111F221F331FA2
:101140008A95D2F7C901B8011F910F910C946208DA
:101150000F931F9341E050E060E070E004C0440F43
:10116000551F661F771F8A95D2F78091FD019091D8
:10117000FE01A091FF01B09100028A019B01082BA2
:10118000192B2A2B3B2BC901B8011F910F910C94ED
:1011900062080F931F9341E050E060E070E004C0EC
:1011A000440F551F661F771F8A95D2F7CB01BA01EE
:1011B00060957095809590950091FD011091FE01CC
:1011C0002091FF0130910002602371238223932339
:1011D0001F910F910C9462080F931F9341E050E010
:1011E00060E070E004C0440F551F661F771F8A95AA
:1011F000D2F78091FD019091FE01A091FF01B09185
:1012000000028A019B01082719272A273B27C901C9
:10121000B8011F910F910C9462080F931F930091D6
:10122000FD011091FE012091FF0130910002602B21
:10123000712B822B932B1F910F910C9462080F93AB
:101240001F930091FD011091FE012091FF0130914B
:10125000000260237123822393231F910F910C942A
:1012600062080F931F930091FD011091FE012091E0
:10127000FF013091000260277127822793271F9179
:101280000F910C94620808952AE0929F800D11241A
:10129000982F977041E001C0440F9A95EAF7869520
:1012A0008695869595E0899FF0011124EC51FE4FBB
:1012B00090E080E070E05191DF0111979B01082ED2
:1012C00002C0369527950A94E2F7217021952527CB
:1012D000242325272C9301968530910561F70895E5
:1012E0002AE0929F800D1124982F977086958695FD
:1012F000869525E0829FF0011124EC51FE4F50E0CD
:1013000040E080E0219130E0092E02C0369527951B
:101310000A94E2F721703327042E01C0220F0A94A9
:10132000EAF7822B4F5F5F4F4530510559F708951B
:10133000BF92CF92DF92EF92FF920F931F93CF93C2
:10134000DF938C01C090FD01D090FE01E090FF0181
:10135000F09000028091010290910202A09103029C
:10136000B0910402C82AD92AEA2AFB2ACFE1D0E0A8
:10137000BC2ED701C6010C2E04C0B695A795979533
:1013800087950A94D2F780FD0EC0219788F7B12C7B
:101390008B2DDF91CF911F910F91FF90EF90DF90F8
:1013A000CF90BF900895B8018C2F0E9484100197B0
:1013B00061F3EECFCF93DF93EC010E949809BE0159
:1013C000DF91CF910C9484101F93CF93DF93EB01A7
:1013D0009091E301992331F0CB01DF91CF911F91DF
:1013E0000C94DA09882379F0CB010E949809182F10
:1013F000682FCE010E944409BE01812FDF91CF9159
:101400001F910C948410CB010E947009182FF4CF07
:101410001F93CF93DF93C091050216E080910602DF
:101420008C1304C0DF91CF911F910895D0E01C9FD1
:10143000F0011D9FF00D1124E95FFD4F40815181A6
:1014400062817381848195810E9406082196C7700C
:10145000E5CF409137025091380260913902709186
:101460003A0280913B0290913C020C940608FF9254
:101470000F931F93CF93DF9380913C02807FD1F431
:10148000809139028823B1F0809105021091060203
:101490006091370270913802A0913A02B0913B02FC
:1014A000062F0723C0914601D091470196E0F92EFF
:1014B000181306C0DF91CF911F910F91FF900895EF
:1014C00090E0109711F00F3F19F401968770F0CF5C
:1014D000F89E9001F99E300D1124F901E95FFD4F4E
:1014E00041814713F2CF40814613EFCF4281411132
:1014F000ECCF438154814A1B5B0B4C175D0728F7E7
:1015000080913C028F70806180933C02F901E45F1E
:10151000FD4F80818F708061808387E392E00E941D
:101520009107DF91CF911F910F91FF900C94080AC2
:10153000AF92BF92CF92DF92EF92FF920F931F93E1
:10154000CF93DF93CDB7DEB761970FB6F894DEBFC8
:101550000FBECDBF8C0185E0F801DE011D96019024
:101560000D928A95E1F7F801E28087E3C82E82E0C8
:10157000D82E60913A0270913B026115710509F411
:101580005FC19091370220913802892F82238F3FCB
:1015900009F456C140815181A380B480F090390292
:1015A000F501E61BF70BBF01E0914601F091470101
:1015B000FF2009F4F6C080913C02382F307F6E176F
:1015C0007F0708F0AFC0311179C0FE2C251323C06E
:1015D000941321C0E1101FC08F70806180933C0282
:1015E0000E94290AC6010E94910780913C02F801DD
:1015F00085838F2D61960FB6F894DEBF0FBECDBFE9
:10160000DF91CF911F910F91FF90EF90DF90CF90DE
:10161000BF90AF900895AB2829F0842F85238F3F8A
:1016200009F027C180E0F82FF170DF2E80FF3CC069
:10163000809105022091060236E0821315C04D8785
:101640005E878D859E850E94DA09292F22952F704D
:101650002230F0F0243018F59F70F1F0F8019581F8
:10166000907FD1F4D12C1EC090E0389FF001399FBB
:10167000F00D1124E95FFD4F6181651306C06081A3
:10168000641303C062816E110FC001968770D5CFBD
:101690009F7011F0882331F3805E883018F3C80101
:1016A0000E949107FD2CA5CFEE2009F4A2CF8091D6
:1016B0003C02816080933C02F12C9BCF251306C035
:1016C000941304C0F801EE2009F487C0C8010E94F9
:1016D000F007882319F1EE2009F180913C02803255
:1016E00070F0209137023091380238872F831986A5
:1016F000BB86AA868C87CE0107960E94910786E05A
:10170000F801A7E3B2E001900D928A95E1F70E94FB
:10171000370A0E94290AFF24F3946BCFC8010E9464
:101720009107F9CF311113C07A2DB98AA88A6E2D8D
:1017300089890E94F70787E392E00E94910786E07B
:10174000F60111928A95E9F70E94290AB5CF25136F
:101750000FC094130DC0E1100BC0F8018583C801C0
:101760000E94910786E0F60111928A95E9F741CF30
:10177000C8010E94F007882389F2EE2079F2809157
:101780003C02803208F4BBCF2091370230913802FE
:101790003A8329831B82BD82AC828E83CE0101965F
:1017A000ACCF6E177F0708F03EC0FE2CEE2009F488
:1017B000B5CF25132AC0941328C080913C0280FD28
:1017C0001BC0982F907FC1F0F8018583903F31F0C6
:1017D000982F907F905F8F70892B8583C8010E941E
:1017E000910786E0F801A7E3B2E001900D928A9597
:1017F000E1F70E94290AFDCE86E0F801A7E3B2E0F6
:1018000001900D928A95E1F7F4CEC8010E94F0078D
:10181000811175CF80913C02816080933C02C801A8
:101820000E949107E6CE7A2DB98AA88A6E2D898901
:101830000E94F70786E0F60111928A95E9F7D9CF61
:10184000EE2009F46BCFC8010E94F007F82E882320
:1018500009F464CF86E0F801A7E3B2E001900D92AD
:101860008A95E1F787E392E00E943A040E94370AE2
:10187000C0CF81E08E25D7CE1F93CF93DF93CDB716
:10188000DEB72C970FB6F894DEBF0FBECDBF4F83E7
:10189000588769877A878B879C87CE0107960E9435
:1018A000980A882369F08A859B85892B39F04F81B6
:1018B0005885842F85238F3F09F071C016E05FC0E3
:1018C00086E0FE013796DE01119601900D928A9511
:1018D000E1F78A859B85892B89F38F8198858923F8
:1018E0008F3F61F32091060230E0C90101968770B5
:1018F0009927409105024817190671F40E94D107F3
:10190000109206021092050286E0E7E3F2E0DF01A2
:101910001D928A95E9F7D2CF96E0929FD001939FCE
:10192000B00D1124A95FBD4FFE01319601900D92BB
:101930009A95E1F7809306020E94080ABFCF819F23
:10194000C0011124895F9D4F0E94980A8823E9F005
:10195000E09105021E9FF0011124E95FFD4F4081D7
:10196000518162817381848195810E9406088091F2
:10197000050290E001968770992780930502809177
:101980000502909106028913DACF2C960FB6F894CF
:10199000DEBF0FBECDBFDF91CF911F910895698546
:1019A0007A858B859C850E94060888CF682F809158
:1019B0004801909149010C94551C682F8091480171
:1019C000909149010C94601C8091480190914901CB
:1019D0000C946B1C80915D02859585958595089585
:1019E00080915D028770089590915D02977081E00B
:1019F00009F480E00895809180020895909180021A
:101A0000892B80938002089580959091800298237D
:101A100090938002089510928002089590917F0221
:101A2000892B80937F020895809590917F0298235F
:101A300090937F02089510927F02089580915E0234
:101A4000089508950C94210D9091DA0292FD08C03A
:101A500090915E02981721F080935E020C94220D03
:101A6000089580915E02882329F010925E0280E042
:101A70000C94220D0895CF93DF93E0914801F091EB
:101A80004901809180028083E0914801F0914901F1
:101A9000808190917F02892B808390915E029923AF
:101AA00081F0E0914801F09149018081892B808388
:101AB00080914801909149010E94C11B81110E94AF
:101AC000310DC0914801D091490140E250E06DE3F1
:101AD00072E0CE010E949B24892B69F080E2FE0116
:101AE000ADE3B2E001900D928A95E1F7CE01DF916E
:101AF000CF910C946D1BDF91CF91089508950C94B4
:101B00007E0D9091DA0292FD10C098E0899F9001BD
:101B10001124622B60935D020E94A80880915D02EF
:101B20008595859585950C947F0D0C94A808109249
:101B30005D0280E00C947F0D90915D028095892379
:101B400080935D02282F277091F4282F082E000C17
:101B5000330B9217130659F09091DA0292FD07C0E9
:101B60008595859585950E94C9080C94970D0895D3
:101B70009091DA0292FB222720F9281769F080FB66
:101B800092F99093DA028091D9029091DA020E9440
:101B9000030E82E00C949C0D08958091DA0282FB82
:101BA000882780F991E089270C94B80D81E00C9486
:101BB000B80D80E00C94B80D6FEF7FEF90E080E0FF
:101BC0000C94F42490E080E00E94C02421E0893E3F
:101BD0009E4F09F020E0822F089582E090E00C945F
:101BE000B82483E090E00C94B824CF9384E090E094
:101BF0000E94B824C82F82E290E00E94B824982F57
:101C00008C2FCF910895CF93C92F682F84E090E057
:101C10000E94D6246C2F82E290E0CF910C94D624BF
:101C2000AB01BC018FE090E00C94E824AB01BC0157
:101C300083E190E00C94E82460E070E0CB010C9428
:101C4000160E60E070E0CB010E94100E0C941C0E8A
:101C500069EE7EEF90E080E00E94F42460E082E094
:101C600090E00E94D62460E083E090E00E94D624B9
:101C700010920102109202021092030210920402CA
:101C800060E084E090E00E94D62460E082E290E090
:101C90000E94D62460E085E090E00E94D62460E0B7
:101CA00086E090E00E94D6246FEF87E090E00E94EB
:101CB000D62440E050E0BA0188E090E00E94E82499
:101CC00060E08DE090E00E94D62440E050E0BA0150
:101CD00088E190E00E94E82460E087E190E00E94C3
:101CE000D62440E050E0BA018CE190E00E94E82464
:101CF00070E060E080E290E00E94F42440E050E078
:101D0000BA0188E190E00E94E8240C94210E0C9422
:101D1000280E682F8EE090E00C94D6240E94201D9F
:101D200060938D0270938E0280938F029093900245
:101D30006093890270938A0280938B0290938C0245
:101D4000089585B7806885BF85B7806885BF089589
:101D5000089508950C94A90E08950C94AC0E0E9459
:101D6000A10E82E691E10E94571B0E94A80E0C94DE
:101D7000AA0E81E008950C94B90E089508950E946A
:101D8000BD0E0C94BE0E0E947F110E94E1030C94C4
:101D900060170E940B1D0E945E120E94C30E0C94DD
:101DA000AD0E7F928F929F92AF92BF92CF92DF92B1
:101DB000EF92FF920F931F93CF93DF93CDB7DEB7D0
:101DC0002A970FB6F894DEBF0FBECDBF0E947312E4
:101DD000E82E81110E948E0E51E8852E52E0952E3C
:101DE00010E000E0702E802F0E94A9115C01F40128
:101DF000C190D1904F01C816D906B1F40F5F1F4FA3
:101E00000430110579F78FEF89838A831B820E9442
:101E1000141D8160782F9D838C8349815A816B8149
:101E20008D810E94FC033DC08091910281FD0E9442
:101E3000B211C6018A259B25F12CCC24C394D12C48
:101E40009C012C213D21232B09F443C00E94BB0E91
:101E500095012C213D21BB24B394232B09F4B12CF3
:101E6000882379F0FE827F82B8860E94141D8160EB
:101E7000782F9A8789874E815F8168858A850E943D
:101E8000FC03000F111FF801EF57FD4F8081918176
:101E9000C826D926D182C0824B2D6F2D872D0E9456
:101EA000961681E0E11001C080E02A960FB6F89402
:101EB000DEBF0FBECDBFDF91CF911F910F91FF907D
:101EC000EF90DF90CF90BF90AF909F908F907F90DA
:101ED0000895F394CC0CDD1CFAE0FF12B1CF8ECF45
:101EE0000E94D10E0E9400170E9476140C94F103F8
:101EF000CF93DF930E948810EC01811521E59207B2
:101F000008F042C0811530E5930708F09DC0883E77
:101F1000910530F5803E910508F092C0883A910510
:101F200088F4853A910508F084C08130910509F460
:101F300087C0009709F484C0049708F081C0D0E0FE
:101F4000C0E07EC08F3B9105D0F7C85AD0E0CC0FDF
:101F5000DD1FC756DE4F0990D881C02DD46470C0F4
:101F60008115904250F4C11581E0D80708F068C08F
:101F7000CD3ED10520F3D06563C0C11590E4D907EB
:101F8000F0F2DF70D06A5CC0811525E5920700F59C
:101F9000811534E5930708F08BC0811543E594075C
:101FA00008F073C0C11582E5D80708F469C0CE01F6
:101FB0008370992721E030E002C0220F331F8A95F9
:101FC000E2F7C695C69580E2C89FE001112454C08F
:101FD000C11599E5D907A8F4C11528E5D20708F07D
:101FE0006CC0C11536E5D30708F0A9CF8C2F0E942D
:101FF0001F11C82FD0E0DC2FCC27CC27DF71D06297
:102000001FC0C1154AE5D40708F45CC0CE01905644
:102010008115904208F093CF8D2F8F710E941F1170
:1020200090E0982F882788279F719C012C2BE9012D
:10203000E6CFC55AD0E0C953DE4FC881D0E0D064A6
:10204000CE01DF91CF910895E4E096958795EA95CA
:10205000E1F783702C2F26952695237040E2249F6C
:1020600090011124382B8C2F8370C1E0D0E002C086
:10207000CC0FDD1F8A95E2F7C22BD32BDC68E0CFB3
:10208000DC2FCC27C16FD06ADBCF8370992721E08A
:1020900030E002C0220F331F8A95E2F7C695C6953D
:1020A00090E2C99FE0011124C22BD32BDA68C8CF7C
:1020B000D82FCC27C46FD06AC3CFDC2FCC27C06FFA
:1020C000D06ABECF8C2F8F700E941F1134E0D6953E
:1020D000C7953A95E1F7CF709C2FEC01D069B0CF4E
:1020E000972F70E02AE0929F600D711D1124FB0173
:1020F00098E2899FE00DF11D1124EE0FFF1FE455BA
:10210000FF4F8591949108950E9470100C94780F60
:1021100082389105B1F1B0F48133910509F475C0AD
:1021200048F48932910509F469C08A32910509F4AD
:1021300073C008958533910509F459C08933910519
:1021400001F10895833E9105A9F138F4803E91058F
:10215000F9F0823E910549F10895863E9105A9F175
:10216000873E9105C9F1843E910519F52091DA0267
:1021700021FF1FC08091D90284FD14C087EE90E03A
:1021800008952091D9022370A1F080EE90E0089587
:102190002091D90220FD47C03091DA0230FF09C0FA
:1021A00024FF44C090E080E004C02091D90222FDC9
:1021B000F7CF08952091D90222FD3BC03091DA0279
:1021C00030FDE3CF24FFF5CFEDCF2091D90223FFDF
:1021D000F0CF24FDE7CFD2CF2091D90223FD2CC030
:1021E0003091DA0231FFEECF84EE90E00895209135
:1021F000D90225FFDECF89E290E008952091D9022F
:1022000025FFD7CF85E390E008952091D90226FFDE
:10221000D0CF8AE290E008952091D90226FFC9CF5D
:1022200081E390E0089589E390E0089583EE90E0E3
:10223000089582EE90E0089586EE90E008959091E2
:10224000D90292FF06C0282F28712830F9F4877F21
:10225000846093FF06C0282F28712831F1F4877E0F
:1022600084612091DA0220FF06C0382F387138309F
:10227000D9F4877F816021FF06C0282F287128317B
:10228000D1F4877E816194FD877E0895282F247183
:102290002430F9F68B7F8860DCCF282F247124311D
:1022A00001F78B7E8861DDCF382F3171313019F71E
:1022B0008E7F8860E0CF282F2171213121F78E7E1B
:1022C0008861E1CF80E008950C94DC0D0E947312C8
:1022D0002FEF86E791E0215080409040E1F700C069
:1022E00000000E94731280E00E94A91180FF04C0C8
:1022F0000E9464110C947B1D08950C9466110E9439
:10230000E20D811102C00E94870E0E94ED0D8093A4
:1023100091020E94F50D9093DA028093D9020E94F7
:102320007D110E94F10D682F70E090E080E00E9426
:1023300026086091FD017091FE018091FF0190914E
:1023400000020C94600808950C94A31108950C9455
:10235000A611E82FF0E0EE0FFF1FED51FD4F808139
:1023600091810895089580EA8A95F1F7089500C053
:1023700008950C94B311F894E82FE295EF70F0E013
:1023800031A1282F2F7081E090E001C0880F2A959D
:10239000EAF7982F9095932391A392A1892B82A37A
:1023A00078940895CF93DF9384E30E94BB1185E373
:1023B0000E94BB1182E30E94BB1186E30E94BB1105
:1023C000CAECD1E089918F3F11F00E94BB1181E0EE
:1023D000C43DD807B9F7DF91CF910895AF92BF926E
:1023E000DF92EF92FF920F931F93CF93DF938C01B5
:1023F000D62EC62FD0E0CE018C529E4F7C01FC0120
:1024000020812F3F09F44DC0F894E22FE295EF7040
:10241000F0E031A12F7081E090E001C0880F2A9593
:10242000EAF7932F982B91A392A18095892382A3F9
:1024300078940E94B711EAECF1E044ED51E021E01C
:1024400030E0B12CA12C61916F3FA9F1A62FA2958C
:10245000AF70B0E090968C9190E06F7002C095954F
:1024600087956A95E2F780FD26C0C901A82AB92A96
:10247000220F331F4E175F0731F7F70180818F3F1F
:1024800011F00E94BB1161E0A114B10409F460E0F5
:102490008D2D0E94B911CC0FDD1FC00FD11FB98245
:1024A000A882DF91CF911F910F91FF90EF90DF9065
:1024B000BF90AF90089590E080E0D8CF0E94D211F5
:1024C00088E0E3EEF2E0DF01982F1D929A95E9F79C
:1024D000EBEDF2E0DF011D928A95E9F784E00E94BE
:1024E000BE120C945F03FF920F931F93CF93DF9361
:1024F000CDB7DEB728970FB6F894DEBF0FBECDBFBD
:102500008E010F5F1F4F88E0F80111928A95E9F75D
:10251000F12C6F2DC8010E94EE11F394F4E0FF122C
:10252000F8CF48E050E0B8018BED92E00E949B2488
:10253000FF24F394009709F4F12C892B41F088E0F3
:10254000F801ABEDB2E001900D928A95E1F72F2DE5
:1025500044E063EE72E08BED92E00E94BF120E94B5
:1025600061038F2D28960FB6F894DEBF0FBECDBF46
:10257000DF91CF911F910F91FF9008950895FF92E1
:102580000F931F93CF93DF93F82E092F162FD72F7A
:10259000C42F222349F081E0809394020E94141DED
:1025A0009093930280939202809194028823A1F0E9
:1025B00080919202909193020E942C1D059760F0E9
:1025C000EF2DF02FA12FBD2F90E080E0D0E08C17F1
:1025D0009D0744F010929402DF91CF911F910F91CB
:1025E000FF900895219131912D933D930196EFCF66
:1025F0000E94411F0E94C90E0C944D1F0E94511F42
:102600000E94700F0C946B1F0E94B41C0E94281F24
:102610000E94AF0E0E94F8120E94FE120E94BF0E8E
:10262000FBCF80919B0280FF0DC060914F0170E055
:10263000660F771F6038710570F56115710569F1D6
:10264000862F089581FF07C060914F0184E0689F45
:10265000B0011124EFCF60914F0182FD0AC080913B
:102660009A028823A9F020914E0160914F018217B0
:1026700010F088E0ECCF869FC001112433E0880F72
:10268000991F3A95E1F7622F70E00E948124D2CF22
:1026900068E070E0D5CF8FE7089581E008958091DC
:1026A0009B0280FF0CC060914B0170E075956795AF
:1026B000759567956115710549F1862F089581FF1C
:1026C00006C060914B0170E075956795F3CF6091FE
:1026D0004B0182FD0BC0909199029923A1F060916A
:1026E0004A0180914B01961738F0682F70E06038EE
:1026F000710500F38FE70895899FC001112470E0F0
:102700000E948124F4CF61E070E0D7CF81E008958A
:102710008D3E31F40E941113819580939F0208959C
:102720008E3E19F40E941113F8CF8F3E31F40E94AF
:102730001113819580939E020895803F19F40E94A1
:102740001113F8CF893F29F40E944F138093A00200
:1027500008958A3F21F40E944F138195F7CF8B3F54
:1027600031F40E944F1381958093A10208958C3F0C
:1027700019F40E944F13F8CF9FE0980F983070F42F
:10278000815F990B21E030E001C0220F8A95EAF7C2
:1027900080919D02822B80939D0208958D3F31F49C
:1027A00080919B02816080939B0208958E3F21F46B
:1027B00080919B028260F7CF8F3FB9F780919B0297
:1027C0008460F1CF40919E028D3E59F480919F022A
:1027D00087FF0DC010929F0241110BC010929A0208
:1027E00008C08E3E81F480919F0218169CF344230A
:1027F00081F08091A0029091A102892B09F05AC02A
:102800001092990208958F3E49F447FFF0CF10923D
:102810009E0280919F028111ECCFE0CF803F19F49E
:102820001416ACF3E4CF9091A002893F29F4191655
:10283000F4F61092A002DBCF8A3F19F497FFD7CFAE
:10284000F8CF9091A1028B3F29F497FFD0CF10923F
:10285000A102CDCF8C3F19F41916CCF3C8CF9FE05D
:10286000980F983090F4815F990B21E030E0B90126
:1028700002C0660F771F8A95E2F7CB018095909191
:102880009D02892380939D02B2CF8D3F31F48091C8
:102890009B028E7F80939B02AACF8E3F21F4809172
:1028A0009B028D7FF7CF8F3F09F0A1CF80919B02D4
:1028B0008B7FF0CF08950E94141D9C0190919E0281
:1028C00080919F02982B21F03093980220939702D9
:1028D0009091A0028091A102982B21F03093960252
:1028E000209395028CE992E00C94871BEF92FF9263
:1028F0000F931F93CF93DF9300D000D000D0CDB7BC
:10290000DEB786E0ECE9F2E0DE01119601900D926F
:102910008A95E1F7E0909E02F0909F020091A0025C
:102920001091A10210929E0210929F021092A0029A
:102930001092A1028E2D8F2991F080919702909193
:1029400098020E942C1DAC0190919A02992309F4DF
:102950003FC0809150018417150608F447C0802FAE
:10296000812B91F080919502909196020E942C1DEE
:10297000AC0190919902992309F477C080914C01A0
:102980008417150608F47FC080919E0290919F02E3
:10299000892B9091A002892B9091A102892B11F093
:1029A0000E945B1486E0FE013196ACE9B2E0019032
:1029B0000D928A95E1F726960FB6F894DEBF0FBE0A
:1029C000CDBFDF91CF911F910F91FF90EF900895B0
:1029D000209151018AE0289F900111242417350786
:1029E00008F0BDCF9F5F90939A0202C09F3FD1F73E
:1029F000EE2059F00E9411139FEF1E140CF491E089
:102A0000899F802D112480939E02FF2059F00E94FF
:102A100011139FEF1F140CF491E0899F802D112456
:102A200080939F0230919E02332309F498CF209126
:102A30009F02222309F493CF45EB3403C0011124F4
:102A4000992359F090939E0245EB240390011124A1
:102A5000332339F030939F0282CF81E080939E022E
:102A6000F3CF81E080939F027ACF20914D018AE0DD
:102A7000289F900111242417350708F085CF9F5F08
:102A80009093990202C09F3FD1F7002359F00E9412
:102A90004F139FEF10160CF491E0899F802D1124A5
:102AA0008093A002112359F00E944F139FEF11163B
:102AB0000CF491E0899F802D11248093A102309124
:102AC000A002332309F460CF2091A102222309F44C
:102AD0005BCF45EB3403C0011124992359F0909347
:102AE000A00245EB240390011124332339F03093E5
:102AF000A1024ACF81E08093A002F3CF81E08093CE
:102B0000A10242CF86E0ECE9F2E0DF011D928A9556
:102B1000E9F710929A021092990210929B0208957E
:102B2000EF92FF920F931F93CF93DF93EB01E82F68
:102B3000D11110C0442321F0F0E0E45CFD4FE4919A
:102B40006E2F7E2F8E2FDF91CF911F910F91FF90CF
:102B5000EF9008950D2F10E0282F30E0442329F046
:102B6000245C3D4FF901249130E0F6E0CF9FC00195
:102B70001124EFEFF0E0BF010E946D24AB018C2F18
:102B800090E0880F991FA5E5A49FB001A59F700D47
:102B90001124861B970B982F990F980FBF01601B6C
:102BA000710B629FD001639FB00D729FB00D112415
:102BB0008B2F9D9FB0011124672F7727EF01C61B34
:102BC000D70BBE01629FE001639FD00D729FD00DB5
:102BD00011247F01E91AF108E09EB001E19E700D19
:102BE000F09E700D1124672F7727E61BF70BE29FED
:102BF0008001E39F100DF29F100D1124E12F722F21
:102C00004230510599F048F44115510569F04130C1
:102C1000510581F0EB2F8D2F07C04430510569F02D
:102C200080F046305105B1F76E2F8DCFE22F7B2F0C
:102C3000812FFACFE22F7D2FF7CFEB2F822F712F2D
:102C4000F3CF7B2F822FED2FEFCF41E00C94901527
:102C500046E050E06CE170E08BEE92E00E94C6240A
:102C60001092A20208950C942516EBEEF2E085E096
:102C700080838091650190916601A09167018183B5
:102C80009283A3838FE784838FEF85830C94281628
:102C9000E091DE01F091DF010994E091DA01F09119
:102CA000DB010994BF92CF92DF92EF92FF920F93D4
:102CB0001F93CF93DF937C01FC01C081CC0F12E006
:102CC0001C0F012F1B3008F00AE06091EC0270919C
:102CD000ED028091EE020E943316D62EC72EB82E3A
:102CE000D0E0C01770F081E01A3008F080E0DF918A
:102CF000CF911F910F91FF90EF90DF90CF90BF90F9
:102D00000895FE01E050FF4F84ADF70191818923C2
:102D100031F02B2D4D2D6C2DCE010E944D1621969C
:102D2000E0CFE091DC01F091DD0109940C94B90E43
:102D3000CF93C82F809156018C1335C09091EB0230
:102D400093702091570130E081E09217130609F447
:102D500080E08170809355018091F0029091540140
:102D6000981739F08093540140E060E080E00E94C1
:102D70009116CC23D1F0C13011F180E09091530134
:102D80009F5F9093530181110CC082E080935201A8
:102D900080915501811105C0C11103C083E080936A
:102DA0005201CF91089581E0D4CF809155018823BD
:102DB00029F340E060E080E00E949116DECF83E5D9
:102DC00091E00E945216DACF08950E94E4160C9406
:102DD000A20208950895CF93DF93FC01C081C158EA
:102DE000CC0FD2E0DC0FDB3008F0DAE06D2F8C2F57
:102DF0000E94E9166D2F8C2FDF91CF910C94EA166B
:102E0000CF930E94201D6093A3027093A40280932D
:102E1000A5029093A6022091A702C0E0211108C04C
:102E20002091EB02C22FC37019F0C22FC695C69530
:102E3000209152012130B1F0222331F02230F1F003
:102E4000233039F1CF910895109253016093F1022C
:102E50007093F2028093F3029093F40281E08093E6
:102E60005201F0CF8C2F0E949816CC2359F30E9468
:102E7000E51683E591E0CF910C94EB16C0935601D3
:102E80008091EB028370809357010E94481683E083
:102E9000E6CF8091A20281110E9428166091F10272
:102EA0007091F2028091F3029091F4020E943B1D16
:102EB000603171058105910528F210925201C2CF4F
:102EC000E091D801F091D90109950E94E20D81119C
:102ED00004C00E94870E0E94351646E050E06CE167
:102EE00070E08BEE92E00E94A8241092A2028091E2
:102EF000EB028C7F11F40C9435160895CF93C82FF4
:102F0000882391F08091A70281110EC00E9498162B
:102F1000109256018091EB028370809357010E94BA
:102F2000481683E080935201C093A702CF91089581
:102F3000EBEEF2E0908121E0922790831092520113
:102F40009091A202892B8093A202089581E00C94B3
:102F500098178091EB02837051F084608093EB02AC
:102F6000109252018091A202862B8093A2020895B2
:102F700061E00C94A917682F81E00C94A91781E0F7
:102F80000C94BB17682F9091EB02969596958FEF56
:102F9000890F09F481E00C94A91781E00C94C21701
:102FA0009091EB02937071F08093EC026093ED02CC
:102FB000413808F040E84093EE028091A202822B53
:102FC0008093A2020895ABEEB2E01196EC911197B6
:102FD000F0E0282F13964C91139712966C91CF0125
:102FE00008960C94D01781E00C94E317EBEEF2E016
:102FF0009181282F43816281E92FE850FF0BCF0197
:103000000C94D01781E00C94F617EBEEF2E062819D
:1030100020E1620F08F46FEF9181282F4381892FFF
:1030200090E00C94D01781E00C940518EBEEF2E0E0
:10303000628120E1621B08F460E09181282F4381C6
:10304000892F90E00C94D01781E00C941618EBEEC9
:10305000F2E0438120E1420F08F44FEF9181282FE5
:103060006281892F90E00C94D01781E00C9427188E
:10307000EBEEF2E0438120E1421B08F440E0918155
:10308000282F6281892F90E00C94D01781E00C9456
:1030900038188093EF028091A202862B8093A202BF
:1030A00008952091EF0230E1230F08F42FEF682FED
:1030B000822F0C94491881E00C9451182091EF0252
:1030C00030E1231B08F420E0682F822F0C9449186C
:1030D00081E00C945E180895FC01EE0FFF1FE80FCD
:1030E000F91FEB50FD4F6183408322830895E5EF84
:1030F000F2E0818360834283339693E0E331F90702
:10310000C1F708956AE070E085EF92E00C9406192B
:10311000FA01811101C0FB0109941F93CF93DF9342
:10312000EC01FB01128111114FC00E94FB0C827255
:10313000CA3CFCE5DF0709F460C030F5C63CECE5AD
:10314000DE0709F455C060F4C43C9CE5D90709F4D6
:1031500043C008F048C0C33CDC45D9F111E034C09D
:1031600044E258E163E178E1C83C9CE5D907C1F14C
:1031700043EF57E162E078E1C93CDC4588F143E187
:1031800058E164E278E12CC0CE3CFCE5DF07D1F1E8
:10319000A0F448E658E16BE578E1CC3CECE5DE07CD
:1031A000F9F045E358E166E478E1CD3CDC45C0F058
:1031B0004BE558E168E678E113C0C73D8CE5D807D8
:1031C00018F0CE35DD4551F6812FDF91CF911F915B
:1031D00008950E94A617F8CF4DEC57E16FEB77E109
:1031E0000E948818F1CF4FEB57E16DEC77E1F8CFF3
:1031F00042E058E163EF77E1F3CF46E458E165E35D
:1032000078E1EECF81E00E94B817DECF529A4BB141
:103210004B7F5BB15460EFB7F8949B01220F331FD3
:10322000260F371F280F391F2817390741F4EFBF22
:103230008FE594E00197F1F700C000000895DC01EC
:103240006D91CD0178E05BB9000000C067FF4BB91C
:10325000660F000000C000C000C04BB900C07A95E6
:1032600091F7E2CFCF93DF93EC01FB0182818823BA
:1032700009F433C1C430FDE5DF07C0F5CB3F9CE561
:10328000D90730F49E0122503C4524313105B0F578
:103290000E94F50D9093DA028093D902C1318CE53A
:1032A000D80709F4EEC008F069C0C930ECE5DE07C4
:1032B00009F4D5C0C8F5C5308CE5D80709F4C7C0F6
:1032C00000F5C330ECE5DE0709F4B9C008F0BBC077
:1032D000C230DC4509F4ADC08091D9029091DA0288
:1032E0000E94030E0E94D10780E008C0C236EDE5BF
:1032F000DE0771F2C63AFDE5DF0751F2DF91CF91AB
:1033000008958091D9028062C7309CE5D90709F4FD
:1033100093C08091D9028061C830DC4508F48CC02C
:103320008091D902806488C08091D9028B7FCD3092
:10333000FCE5DF0709F480C098F48091D9028E7F04
:10334000CB309CE5D90709F477C08091D9028C6015
:10335000CC30DC4508F470C08091D9028D7F6CC000
:103360008091D9028F7ECF30FCE5DF0709F464C07D
:1033700008F47BC08091D9028F7D5EC0CE3F9CE572
:10338000D90709F47AC050F5C531FCE5DF0709F427
:1033900086C098F48091D902837FC3319CE5D90718
:1033A00009F44AC008F471C00E94D1079091D90273
:1033B000892F97FB87F980583FC0CC3FFCE5DF079A
:1033C00009F449C008F055C08091DA028160CB3F12
:1033D000DC4509F081CF8093DA027ECFC230EDE583
:1033E000DE0709F468C0A8F4C1158DE5D80709F413
:1033F00052C08091DA028360C130DD4560F3809174
:10340000DA02982F909591708E7F892B90FB81F92D
:10341000E2CFC236EDE5DE0709F451C0C63AFDE55C
:10342000DF0709F453C0C330DD4509F055CF80E014
:1034300043C08091D90281608093D9024DCF8091A1
:10344000D9028260F9CF8091D9028460F5CF809152
:10345000D9028860F1CF8091DA028260BCCF0E94ED
:10346000D1078091D9028068E7CF8091D902877F08
:10347000E3CF8091DA028E7FAECF8091DA028D7F2A
:10348000AACF8091D9028F7BD7CF0E94D10780919C
:10349000D9028F77D1CF8091DA028C7F9CCF809137
:1034A000D90282FB992790F921E0922790FB82F9BB
:1034B00090FB83F9C1CF81E00E94890E0DCF9091DE
:1034C000D902892F8F7E94FF8061B6CF9091D90267
:1034D000892F8E7F90FF8160AFCF81E00FCFCF9398
:1034E000DF93EB0186319C4511F50E94FB0C9A811C
:1034F000992399F08A7A91E009F490E09093A802D8
:10350000811109C089E20E94D60C0E943B0D80E027
:10351000DF91CF91089585E3F6CF8091A8028111C4
:1035200004C089E20E94DD0CF0CF85E3FBCF81E08F
:10353000EFCF0F931F93CF93DF93C42FD22FFC01B4
:1035400082818823C9F04093AB020E94141D90939E
:10355000AA028093A90280E28C0F883008F050C044
:10356000C77081E001C0880FCA95EAF7DF91CF915B
:103570001F910F910C9446051091AB02141335C0A6
:103580008091A9029091AA020E942C1D883C91056D
:1035900060F5C0E2CD0F1D17B9F080E2810F8830D1
:1035A00040F4177081E001C0880F1A95EAF70E9475
:1035B0004D05C83048F481E09D2F977001C0880FF9
:1035C0009A95EAF70E944605802F0E943E05C83072
:1035D000B8F4D77081E001C0880FDA95EAF7DF917F
:1035E000CF911F910F910C944D0580E28C0F883084
:1035F00038F4C77081E001C0880FCA95EAF7EFCFB1
:10360000DF91CF911F910F9108950F939C01CB01F2
:10361000243F4CE5340759F1A8F4293DFCE53F0768
:1036200001F12A3D4CE53407D1F1283D3C4591F4A8
:1036300006E221EE41EE68ED7CE50E94991A80E0F9
:103640000F910895263FFCE53F07E9F0B0F0273FD2
:103650003C45F9F0FC018281882339F11092AB02DC
:10366000EFCF07E225EE45EE69ED7CE5E6CF06E219
:1036700021EE40EE64EF7CE5E0CF07E225EE44EE7C
:1036800065EF7CE5DACF06E221EE42EE66EF7CE5FF
:10369000D4CF07E225EE46EE67EF7CE5CECF08E219
:1036A00021E045EE6AED7CE5C8CF81E0C9CF90937B
:1036B000E1018093E00108959093B1028093B002FC
:1036C0000895E091B002F091B102309721F001909D
:1036D000F081E02D099480E00895E091B002F0912E
:1036E000B102309799F020916401222359F0209182
:1036F000D90227FF07C0DC012C9111962C9311975A
:1037000026E02C930280F381E02D09940895E09146
:10371000B002F091B102309739F022E0DC012C9335
:103720000480F581E02D099408952091AE02309136
:10373000AF022817390771F09093AF028093AE0261
:10374000E091B002F091B102309721F00680F7814C
:10375000E02D099408952091AC023091AD02281714
:10376000390771F09093AD028093AC02E091B00202
:10377000F091B102309721F00084F185E02D099499
:103780000895FC01329680916401882321F0809194
:10379000D9029EE187FF96E080E0915008F40895F9
:1037A00021912223D1F38F5FF8CF662301F120917D
:1037B00064012223F1F02091D90227FF1AC0462F7D
:1037C0004695469546954E3190F4677021E030E07D
:1037D00002C0220F331F6A95E2F7840F911DFC018E
:1037E000828190E02823392381E0232B69F480E053
:1037F0000895FC01329608962191261721F0E817CA
:10380000F907D1F7F4CF81E008959C01FC013296CD
:103810009FEF80E04191461751F09F3F19F441110D
:1038200001C0982F8F5F8630A9F79F3F09F4089554
:10383000290F311D97FD3A95F90162830895FC0126
:10384000329608962191261303C0DF0111971C922E
:10385000E817F907B9F70895E62FE695E695E69596
:10386000EE3168F4E80FF92FF11D677021E030E0C8
:1038700001C0220F6A95EAF78281822B8283089524
:10388000E62FE695E695E695EE3170F4E80FF92F10
:10389000F11D677021E030E001C0220F6A95EAF760
:1038A0002095828128232283089520916401222378
:1038B00029F02091D90227FD0C942C1C0C94051C96
:1038C00020916401222329F02091D90227FD0C9434
:1038D000401C0C941F1CFC013296809164018823CB
:1038E00051F08091D90287FF06C08EE1DF011D9261
:1038F0008A95E9F7089586E0F9CF08950C947D1C28
:10390000811105C081E08093B2020C947E1C82E09C
:10391000FACF83E08093B2020C947E1C0C94801C3E
:1039200081E08093B2020C947E1C0C94901C08954C
:1039300008950C94981C089508950C94971CCF93A7
:103940000E949B1C0E9473120E949C1CC0E08C2F42
:103950000E94A911892B31F4CF5FC430C1F780E0F8
:10396000CF91089581E0FCCF08951F921FB61F925A
:1039700011248F939F93AF93BF938091B3028111D2
:1039800013C08091130390911403A0911503B0917B
:1039900016034196A11DB11D809313039093140348
:1039A000A0931503B0931603BF91AF919F918F9190
:1039B0001F901FBE1F90189580911B03843031F11A
:1039C0000E94CB031092B30288E190E020E40FB68E
:1039D000F894A895809360000FBE2093600083B791
:1039E000817F846083BF83B7816083BF789488952B
:1039F00083B78E7F83BF0FB6F894A895809160003F
:103A0000886180936000109260000FBE08950E944C
:103A1000D1070C94D40382E084BD93E095BD9AEF66
:103A200097BD80936E0008952FB7F894809113038B
:103A300090911403A0911503B09116032FBF089520
:103A40002FB7F894609113037091140380911503BC
:103A5000909116032FBF08959C014FB7F894809161
:103A6000130390911403A0911503B09116034FBF57
:103A7000821B930B0895CF92DF92EF92FF922FB7A4
:103A8000F894C0901303D0901403E0901503F090C5
:103A900016032FBFA7019601261B370B480B590BA6
:103AA000CA01B901FF90EF90DF90CF90089578940C
:103AB0001F921FB61F9211248F939F93AF93BF93B2
:103AC0008091130390911403A0911503B0911603F4
:103AD0000196A11DB11D8093130390931403A0932D
:103AE0001503B0931603BF91AF919F918F911F90D3
:103AF0001FBE1F90189581E08093E00080E28093C4
:103B0000D8001092C9008FE19EE40197F1F700C040
:103B1000000087E090EBDC01809324039093250361
:103B2000A0932603B093270388E19CE00FB6F89496
:103B3000A895809360000FBE90936000FFCF8091A6
:103B4000D702089508959C0182E08093E9009FEFD9
:103B50008091E800915085FD06C085ED8A95F1F7CA
:103B600000009111F5CF8091E80085FF0CC050E076
:103B700040E066E070E0C9010E94DC1F8091E8002F
:103B80008E778093E8000895CF93DF93EC018091C6
:103B900064018823B1F18091D90287FF32C060E2CD
:103BA00082E08093E9008FEF9091E800815095FDCD
:103BB00006C095ED9A95F1F700008111F5CF80913F
:103BC000E80085FF1BC08091640170E050E040E098
:103BD000811104C050E040E068E070E0CE010E9436
:103BE000DC1F8091E8008E778093E80080E2FE0180
:103BF000A7EBB2E001900D928A95E1F7DF91CF91AA
:103C0000089568E081E0CDCF8093B4027093B6024E
:103C10006093B50280911B03843001F582E08093AC
:103C2000E9008FEF9091E800815095FD06C095ED79
:103C30009A95F1F700008111F5CF8091E80085FF9A
:103C40000DC050E040E063E070E084EB92E00E9441
:103C5000DC1F8091E8008E778093E8000895BC0116
:103C600084E00C94041EBC0183E00C94041E80913B
:103C70001A03811109C00E946C210E94C921809100
:103C8000E20084608093E200089510921A03089580
:103C90000C94901C6091170381E0611101C080E0D9
:103CA0000C94891C90911B0381E0943009F080E012
:103CB000609117030C948E1C42E061EC81E00E943D
:103CC000E82042E261EC82E00E94E82090911B0330
:103CD00081E0943009F080E0609117030C94801C1F
:103CE00080911D03833009F460C030F48130C9F144
:103CF000823009F49CC008958A3009F488C08B3062
:103D000009F46EC0893009F04FC080911C038132E4
:103D100009F04AC08091200390912103029708F096
:103D200043C08091E800877F8093E8008091E8009D
:103D300082FF36C09091F3008091F200029731F437
:103D40008091F100813011F0863021F48091F100F2
:103D50008093D7028091E8008B778093E8000C94E1
:103D60001C2180911C03813AF9F48091E800877F3F
:103D70008093E8008091200390912103892B61F4C6
:103D800060E287EB92E070E00E942B208091E800D7
:103D90008B778093E800089560E090E080E0F3CFB7
:103DA00080911B038111C2CF089580911C03813A39
:103DB000D9F78091200390912103892BA9F7809155
:103DC000E800877F8093E8008091E80080FFFCCFC7
:103DD000809164018093F1008091E8008E77BDCFDF
:103DE00080911C03813201F780912003909121037F
:103DF000892BD1F68091E800877F8093E8000E94AC
:103E00001C2180911E03809364010C94D107809142
:103E10001C03813249F68091E800877F8093E80097
:103E20000E941C2180911F038093D80208958091E5
:103E30001C03813A09F0B8CF8091E800877F809316
:103E4000E8008091E80080FFFCCF8091D802C2CFCB
:103E500084B7877F84BF0FB6F894A89580916000DF
:103E6000886180936000109260000FBE80E890E04F
:103E70000FB6F89480936100909361000FBE0C948C
:103E8000951C0E946C210E94C921E2EEF0E0808125
:103E90008460808378940C94522488E591E00C949B
:103EA0005C1B80911B038530A9F480911B03853036
:103EB00011F00C94071D0E94DC1C809119038823CB
:103EC000A1F30E949F1C882381F30E94C61F0E94B9
:103ED000D107EBCF089508950C946E1F292F332737
:103EE0002330310519F168F42130310509F444C05B
:103EF0002230310509F445C090E080E030E020E058
:103F000025C02132310549F122323105A9F780E47B
:103F100090E021E834E061157105C1F086EB90E096
:103F20002BEC33E06130710589F0E6CF99278130C1
:103F3000910581F0009729F00297F1F6ECE3F3E0A8
:103F400002C0EAE7F3E0849190E09F01FA01318337
:103F500020830895E2E6F3E0F6CF89E090E020E9DF
:103F600033E06115710591F389E090E029EA33E0CF
:103F70006130710559F3C0CF82E190E029EB33E065
:103F8000E5CF8BE390E02EE733E0E0CF80E189BD21
:103F900082E189BD09B400FEFDCF8091D8008F7DFC
:103FA0008093D8008091E00082608093E00080914F
:103FB000E00081FDFCCF0895AF92BF92CF92DF92D7
:103FC000FF920F931F93CF93DF936C01EB018A0154
:103FD0000E943B21F82E811123C00115110539F0F3
:103FE000F80180819181C81BD90BC80ED91EB12C54
:103FF000A12C2097A9F08091E80085FD22C0809136
:10400000E8008E778093E80001151105A1F0F80112
:1040100080819181A80EB91EB182A08285E0F82E20
:104020008F2DDF91CF911F910F91FF90DF90CF9057
:10403000BF90AF9008950E943B218823D1F2F82EC3
:10404000EFCFF60181916F018093F1002197FFEF8F
:10405000AF1ABF0ACECFFC018091220390912303B7
:1040600086179707A0F06115710529F49091E80073
:104070009E779093E80090E06115710551F49111DD
:1040800008C08091E80082FF34C080E00895BC0140
:10409000F2CF80911B038823C1F18530C1F180915B
:1040A000E80083FD30C08091E80082FDEACF809176
:1040B000E80080FFE1CF8091F3002091F200382FDB
:1040C0006115710519F02830310558F091E028305C
:1040D000310509F090E02091E8002E772093E80068
:1040E000CBCF81918093F100615071092F5F3F4FD9
:1040F000E7CF80911B03882341F0853041F0809108
:10410000E80083FFBECF81E0089582E0089583E058
:104110000895FC018091220390912303861797074D
:10412000A0F06115710529F48091E8008E778093E5
:10413000E80090E06115710551F4911108C080917B
:10414000E80082FF35C080E00895BC01F2CF809185
:104150001B038823C9F18530C9F18091E80083FDF4
:1041600031C08091E80082FDEACF8091E80080FFB5
:10417000E1CF8091F3002091F200382F6115710595
:1041800019F02830310558F091E02830310509F058
:1041900090E08091E8008E778093E800CBCF849107
:1041A0008093F1003196615071092F5F3F4FE6CF48
:1041B00080911B03882341F0853041F08091E80015
:1041C00083FFBDCF81E0089582E0089583E00895E4
:1041D000982F973028F08F708093E90081E0089540
:1041E0009093E900242F762F50E0981731F07091CA
:1041F000EC002091ED005091F00021FD02C09F5F86
:10420000E8CF3091EB003E7F3093EB003091ED0032
:104210003D7F3093ED003091EB0031603093EB0047
:104220007093EC002093ED005093F0002091EE008D
:1042300027FDE5CF80E0089580911C0387FF13C020
:104240008091E80082FF06C08091E8008B77809320
:10425000E80004C080911B038111F2CF0895809182
:104260001B038823D9F38091E80080FFF8CF809169
:10427000E8008E77ECCF2091E4003091E50095E6E0
:10428000A9012091EC00822F817020FF06C080914F
:10429000E80080FF06C080E008952091E80022FD3C
:1042A0001AC080911B03882389F0853089F08091A2
:1042B000EB0085FD0FC02091E4003091E50042172E
:1042C0005307F9F29150E1F684E0089582E00895F1
:1042D00083E0089581E008950E94DA210E94E2219E
:1042E000E0EEF0E0808181608083E8EDF0E08081A5
:1042F0008F77808319BCA7EDB0E08C918E7F8C9373
:1043000080818F7E808310921A0308950F931F93EC
:10431000CF93DF930E94DA210E94E221C8EDD0E022
:1043200088818F77888388818068888388818F7D62
:10433000888319BC10921B03109217031092190363
:104340001092180300EE10E0F80180818B7F8083CB
:1043500088818160888342E060E080E00E94E820FC
:10436000E1EEF0E080818E7F8083E2EEF0E08081FC
:1043700081608083808188608083F80180818E7F66
:104380008083888180618883DF91CF911F910F9115
:104390000895E8EDF0E080818F7E8083E7EDF0E026
:1043A00080818160808384E082BF81E080931A03F2
:1043B0000C948621E8EDF0E080818E7F808310925E
:1043C000E20008951092DA001092E10008951F9221
:1043D0000F920FB60F9211242F933F934F935F9339
:1043E0006F937F938F939F93AF93BF93EF93FF93BD
:1043F0008091E10082FF0BC08091E20082FF07C044
:104400008091E1008B7F8093E1000E945124809194
:10441000DA0080FF19C08091D80080FF15C080911C
:10442000DA008E7F8093DA008091D90080FF96C0F9
:1044300080E189BD82E189BD09B400FEFDCF81E044
:1044400080931B030E94371E8091E10080FF19C0FA
:104450008091E20080FF15C08091E2008E7F809302
:10446000E2008091E20080618093E2008091D800B8
:1044700080628093D80019BC85E080931B030E9462
:104480004A1E8091E10084FF2BC08091E20084FFEE
:1044900027C080E189BD82E189BD89B5982F9170DF
:1044A00080FFFBCF8091D8008F7D8093D8008091D2
:1044B000E1008F7E8093E1008091E2008F7E809307
:1044C000E2008091E20081608093E2008091170316
:1044D000882309F449C084E080931B030E94521E84
:1044E0008091E10083FF29C08091E20083FF25C015
:1044F0008091E100877F8093E10082E080931B033D
:10450000109217038091E1008E7F8093E1008091EB
:10451000E2008E7F8093E2008091E20080618093D0
:10452000E20042E060E080E00E94E8208091F0003C
:1045300088608093F0000E94481EFF91EF91BF9128
:10454000AF919F918F917F916F915F914F913F912B
:104550002F910F900FBE0F901F90189519BC1092BD
:104560001B030E94451E70CF8091E30087FD93E0FE
:1045700090931B03B3CF1F920F920FB60F9211248B
:104580002F933F934F935F936F937F938F939F935B
:10459000AF93BF93CF93DF93EF93FF93D091E90055
:1045A000DF708091EC00C82FC17080FDC0E81092D0
:1045B000E9008091F000877F8093F00078940E945A
:1045C000FF221092E9008091F00088608093F00053
:1045D000CD2BCF70C093E900FF91EF91DF91CF9188
:1045E000BF91AF919F918F917F916F915F914F910B
:1045F0003F912F910F900FBE0F901F9018951F9312
:10460000CF93DF93CDB7DEB7AA970FB6F894DEBF8E
:104610000FBECDBF8CE193E02091F100FC0121930E
:10462000CF01F3E084329F07B9F70E94701E80919A
:10463000E80083FF1EC180911C0390911D039A30F6
:1046400008F017C1E92FF0E0E85FFA4D0C949524CB
:10465000803899F0823809F00CC1809120038F7066
:10466000873008F006C18093E9008091EB0085FB5C
:10467000882780F91092E90006C080911803909174
:104680001903911182609091E800977F9093E80060
:104690008093F1001092F1008091E8008E77E5C0E0
:1046A000882309F4D3C0823009F0E3C080911E034F
:1046B0008111D6C0809120038F702FEF280F2630F4
:1046C00008F0D7C08093E9002091EB0020FFC8C01C
:1046D000933031F48091EB0080628093EB00C0C096
:1046E0009091EB0090619093EB0021E030E001C0ED
:1046F000220F8A95EAF72093EA001092EA0080914F
:10470000EB008860EACF8111B4C010911E031F77BF
:104710008091E3008078812B8093E3008091E80012
:10472000877F8093E8000E941C218091E80080FF31
:10473000FCCF8091E30080688093E30082E0111158
:1047400083E080931B0395C08058823008F091C0AD
:1047500080911E0390911F038C3D23E09207A1F5E9
:1047600083E08A838AE289834FB7F894DE01139647
:1047700020E03EE051E2E32FF0E050935700E49157
:1047800020FF03C0E295EF703F5FEF708E2F90E047
:10479000EA30C0F0C7968D939D932F5F243159F76F
:1047A0004FBF8091E800877F8093E8006AE270E065
:1047B000CE0101960E942B208091E8008B77809398
:1047C000E80057C0C096E7CF6091200370912103A5
:1047D000AE014F5F5F4F0E946C1FBC01892B09F433
:1047E00048C09091E800977F9093E80089819A8172
:1047F0000E948920E1CF8038E1F58091E800877F31
:104800008093E800809117038093F10045CF8111D8
:1048100030C090911E03923060F58091E800877F50
:104820008093E800909317030E941C218091170346
:10483000882311F084E005C08091E30087FDFACF62
:1048400081E080931B030E945C1E13C080911E03B5
:10485000813079F481E0933009F080E0809319038E
:104860001092E9008091E800877F8093E8000E9421
:104870001C218091E80083FF0AC08091E800877FB7
:104880008093E8008091EB0080628093EB00AA9611
:104890000FB6F894DEBF0FBECDBFDF91CF911F9151
:1048A00008950895CF9380911B038823A1F0C091B0
:1048B000E900CF709091EC00892F817090FD80E825
:1048C000C82B1092E9008091E80083FD0E94FF222E
:1048D000CF70C093E900CF910895AA1BBB1B51E193
:1048E00007C0AA1FBB1FA617B70710F0A61BB70B60
:1048F000881F991F5A95A9F780959095BC01CD0105
:10490000089597FB072E16F4009407D077FD09D081
:104910000E946D2407FC05D03EF4909581959F4F31
:104920000895709561957F4F0895EE0FFF1F0590D4
:10493000F491E02D0994FB01DC0104C08D910190FC
:10494000801921F441505040C8F7881B990B0895F5
:10495000DC01CB01FC01F999FECF06C0F2BDE1BD3F
:10496000F89A319600B40D9241505040B8F708952E
:10497000F999FECF92BD81BDF89A992780B5089527
:10498000A8E1B0E042E050E00C94AA24DC01A40FBE
:10499000B51F4150504048F0CB01840F951F2E9118
:1049A0000E94D72441505040D0F70895262FF999FE
:1049B000FECF92BD81BDF89A019700B4021639F07E
:1049C0001FBA20BD0FB6F894FA9AF99A0FBE08954F
:1049D0000396272F0E94D7240E94D624252F0E94B9
:1049E000D724242F0C94D7240196272F0E94D72454
:1049F0000C94D624F894FFCF92059205C305C30505
:104A000056067206F205F2057D0609071807180713
:104A1000282350233924502339248323A4233924E1
:044A2000FB23072449
:104A2400FFFFFFFFFFFFFFFFFFFFFFFFFFFFFFFF92
:104A3400FFFFFFFFFFFFFFFFFFFFFFFFFFFF00017F
:104A44000203040506070809000000010002000330
:104A54000004000500060007000800090101010127
:104A6400010101010101C8005F02280850011E0A6A
:104A740014010300FF00FFFF9F1DC41DA31D331E6F
:104A84002F1EA21D0100FF80E200E900EA00B5002C
:104A9400B600B700CD008301CC008A0192019401D5
:104AA4002102230224022502260227022A02B3003D
:104AB400B4006F007000818283E200E900EA00B56F
:104AC40000B600B700CD008301CC008A01920194A6
:104AD400012102230224022502260227022A02B30C
:104AE40000B4006F00700081828390946697C6F5CD
:104AF400F6F73133343532366B186C187718821860
:00000001FF
